:100000000C9435000C947E000C945D000C945D0003
:100010000C945D000C945D000C945D000C945D00EC
:100020000C945D000C945D000C945D000C945D00DC
:100030000C945D000C945D000C945D000C945D00CC
:100040000C945D000C945D000C9422050C945D00F2
:100050000C945D000C945D000C945D000C945D00AC
:100060000C945D000C945D003B0111241FBECFEF8A
:10007000D8E0DEBFCDBF12E0A0E0B1E0E4E5FBE0F8
:1000800002C005900D92A031B107D9F722E0A0E19E
:10009000B2E001C01D92A438B207E1F710E0C5E359
:1000A000D0E004C02197FE010E94A205C433D1070D
:1000B000C9F70E94A9000C94A8050C9400000F93A6
:1000C0001F9300E112E020E040E060E08EE292E069
:1000D0000E94F903882351F08091120285FF0BC022
:1000E00063E088E192E00E94A40105C066E088E137
:1000F00092E00E94A4011F910F9108951F920F9208
:100100000FB60F9211242F933F934F935F936F93EA
:100110007F938F939F93AF93BF93EF93FF930E942F
:100120005F00FF91EF91BF91AF919F918F917F9170
:100130006F915F914F913F912F910F900FBE0F9054
:100140001F901895529882E08093690081E08DBBE2
:100150000895CF93DF9300D000D01F92CDB7DEB7C4
:1001600084B1866084B9299A0E94F204CE01059672
:100170000E9459058823D1F38EE292E00E940C037D
:100180008823D1F161E088E192E00E94A4010E94FD
:10019000A20061E08EE292E00E94DF0447E060E0AE
:1001A00072E18EE292E00E94BE0400E020E040E0B6
:1001B00060E0CE0101960E94640101E021E041E08F
:1001C00061E0CE0101960E9477016BE070E0CE0104
:1001D00001960E9460019E012F5F3F4F44E06DE059
:1001E00072E18EE292E00E945503E6E3F2E081E0E4
:1001F00080831282118206C060E088E192E00E9452
:10020000A401FFCF88E192E00E940C025A9B0E9459
:100210005F00809100018823A9F34BE066E372E060
:100220008EE292E00E944204E6E3F2E08181928154
:1002300001969283818320E030E040E360E08EE22B
:1002400092E00E942204811106C064E088E192E0FD
:100250000E94A4010AC02FE788E391E0215080406A
:100260009040E1F700C00000CDCF65E088E192E06A
:100270000E94A401FACFEF92FF920F931F9302E026
:1002800025E230E041E065E270E08EE292E00E941B
:1002900048020F2EFDE3EF2EF2E0FF2EF02D09E3D2
:1002A00012E020E031E046E352E06EE272E088E1E5
:1002B00092E00E948D011F910F91FF90EF900895A1
:1002C000FC017083618308950F931F93302F022FD9
:1002D000000F000F602B20E1329F80011124062BBC
:1002E000440F042BFC0102831F910F9108950F937B
:1002F0001F9330E2239FF001112420E8029F800128
:1003000011240E2B440F440F440F042B660F602B57
:10031000FC0163831F910F910895EF92FF920F9359
:100320001F93FC018FEF8083118275876487558B43
:10033000448B37872687118B008BF38AE28A1F91C3
:100340000F91FF90EF900895CF93C62F21E0FC010D
:10035000218362E070E00E940B058C2F0E94030550
:10036000CF910895CF93DF93EC016C897D898C85C3
:100370009D850E94B80482E0898362E070E0CE012E
:100380000E940B0582E00E940305EC89FD898081B3
:100390000E940305DF91CF910895CF93DF93FC0175
:1003A0009381913061F030F0EF01923071F0933031
:1003B000C9F02FC00684F785E02D10822AC006847C
:1003C000F785E02D81E0808324C08281823009F5A9
:1003D00064816623F4F0848595850E94DF04CE0154
:1003E0000E94B2018A818930A1F4E889F9898C815F
:1003F0009D81AE81BF8180839183A283B383EA898B
:10040000FB8988859985AA85BB8580839183A28392
:10041000B383DF91CF910895CF92DF92EF92FF9255
:100420000F931F93CF93DF931F92CDB7DEB77C015D
:100430008C010E5F1F4F6C0183E0C80ED11C18C0E9
:1004400099819F3FA9F4C8010E9459058823D9F3D7
:10045000F70182818150893058F4F701628170E0A0
:10046000C6010E9477058823C1F3C7010E94CD0110
:10047000CE0101960E9459058111E2CF0F90DF91C4
:10048000CF911F910F91FF90EF90DF90CF90089543
:100490000F93FC0173836283468335832483078330
:1004A0000F910895FC01A481B5814C9121E030E0C9
:1004B000C901078002C0880F991F0A94E2F7842BB4
:1004C0008C9385E88A95F1F70000A481B5819C9111
:1004D000A901078002C0440F551F0A94E2F7842F38
:1004E000809589238C93A281B3818C91068002C070
:1004F000220F331F0A94E2F7282B2C930895EF92D2
:10050000FF920F931F93CF93DF93EC0100E416E06B
:10051000EE24E394F12CEA81FB81908197010E8017
:1005200002C0220F331F0A94E2F7822F809589239D
:10053000808384E40E94EC048FEF0E94EC04EA8143
:10054000FB81908197010E8002C0220F331F0A9415
:10055000E2F7292B20838F3F19F001501109D9F6BA
:1005600091E08F3F09F090E0892FDF91CF911F91AB
:100570000F91FF90EF900895BF92CF92DF92EF928C
:10058000FF920F931F93CF93DF937C016B01C42FD6
:100590000E947F02B82E8823A1F1D7011296ED9117
:1005A000FC911397208181E090E016960C9002C098
:1005B000880F991F0A94E2F78095822380839FEF2A
:1005C0009C0FCC2369F0E601092F10E00F5F1F4F4D
:1005D0000C0D1D1D89910E94EC04C017D107D1F7A5
:1005E000D7011296ED91FC911397808121E030E0C4
:1005F00016960C9002C0220F331F0A94E2F7282BA4
:1006000020838B2DDF91CF911F910F91FF90EF9061
:10061000DF90CF90BF900895CF92DF92EF92FF923C
:100620001F93CF93DF936C010E94E504C6010E94E3
:1006300052028FE19EE40197F1F700C00000109193
:100640000101112349F1E12CF12C20E030E0E90116
:100650002196BE016F5F7E4F412FC6010E94BC02F2
:10066000811104C0F601F182E08217C0E114F104A7
:1006700031F4EFE1FEE43197F1F700C00000FFEF45
:10068000EF1AFF0A9E01210F311DF901EF5FFE4FA6
:1006900010811111DCCF01C081E0DF91CF911F915A
:1006A000FF90EF90DF90CF9008950F931F93CF931B
:1006B000DF93CDB7DEB760970FB6F894DEBF0FBEFD
:1006C000CDBF8C01FE01319680E1DF011D928A953C
:1006D000E9F781E189837A834B836C838FEF840F01
:1006E000442391F0A22FB32F34969E01280F311D81
:1006F0002A5F3F4F9D919193E217F307D9F7482F57
:1007000050E04B5F5F4F02C044E050E0BE016F5FBE
:100710007F4FC8010E94BC0260960FB6F894DEBFFE
:100720000FBECDBFDF91CF911F910F910895BF9262
:10073000CF92DF92EF92FF920F931F93CF93DF93AD
:10074000EC017B01B42E00E416E0CC24C394D12C40
:10075000EA81FB81908196010E8002C0220F331F37
:100760000A94E2F7822F80958923808384E40E9493
:10077000EC048FEF0E94EC048F3F21F48B0DB1103D
:1007800012C01FC0EA81FB812081C6010E8002C019
:10079000880F991F0A94E2F7822B80830150110978
:1007A000B9F680E01CC0870190E00196E80EF91EC2
:1007B0008FEF0E94EC04F80181938F01EE15FF0585
:1007C000B9F7EA81FB81208181E090E00E8002C0D0
:1007D000880F991F0A94E2F7822B808381E0DF91D2
:1007E000CF911F910F91FF90EF90DF90CF90BF902E
:1007F0000895EF92FF920F931F93CF93DF9300D052
:1008000000D0CDB7DEB77C0180E289836A834B8359
:100810002C8344E0BE016F5F7F4FC7010E94BC0282
:10082000882329F048E0B801C7010E9497030F9080
:100830000F900F900F90DF91CF911F910F91FF902C
:10084000EF900895CF93DF9300D000D01F92CDB7E3
:10085000DEB7FE01319655E0DF011D925A95E9F7AA
:1008600051E359836A834B833C832D8345E0BF0169
:100870000E94BC020F900F900F900F900F90DF918D
:10088000CF910895CF92DF92EF92FF920F931F9333
:10089000CF93DF937C016B01C42FDC011296ED91A5
:1008A000FC911397208181E090E016960C9002C095
:1008B000880F991F0A94E2F780958223808386E649
:1008C0000E94EC049FEF9C0FCC2369F0E601092FF6
:1008D00010E00F5F1F4F0C0D1D1D89910E94EC044D
:1008E000C017D107D1F7D7011296ED91FC9113975C
:1008F000208181E090E016960C9002C0880F991F2D
:100900000A94E2F7822B8083DF91CF911F910F91A0
:10091000FF90EF90DF90CF900895EF92FF920F93AA
:100920001F93CF93DF9300D000D0CDB7DEB78C01FB
:100930007A0182E1898381E08B837A836C8344E04E
:10094000BE016F5F7F4FC8010E94BC02882329F05F
:1009500041E0B701C8010E9497030F900F900F90DC
:100960000F90DF91CF911F910F91FF90EF9008951D
:10097000AB0161E072E20E948D040895CF93DF9392
:1009800000D000D01F92CDB7DEB7FE01319625E032
:10099000DF011D922A95E9F721E1298321E02B83CC
:1009A0007A836C834D8345E0BF010E94BC020F90A7
:1009B0000F900F900F900F90DF91CF910895462FD9
:1009C00061E072E20E94BE04089584B1886284B935
:1009D0008CB580658CBD08958EBD0DB407FEFDCF2E
:1009E0008EB508951092C5008CE08093C400E0ECB1
:1009F000F0E080818D7F8083E1ECF0E08081886988
:100A0000808378940895E0ECF0E0908195FFFDCF2D
:100A10008093C6000895CF93DF936115710579F037
:100A2000DC01680F791FE0ECF0E0C6ECD0E09081CB
:100A300095FFFDCF9D919883A617B707C1F7DF916A
:100A4000CF9108951F920F920FB60F9211248F939A
:100A50009F93EF93FF93E091420281E08E0F80938A
:100A60004202F0E08091C600EC5BFD4F80838091F4
:100A700042028F738093420290914202809143021E
:100A8000981305C0809143028F5F80934302809149
:100A9000410286FD05C0809141028F5F8093410233
:100AA000FF91EF919F918F910F900FBE0F901F902C
:100AB0001895DC01909141029923B9F0909141027F
:100AC000915090934102E091430281E08E0F809318
:100AD0004302F0E0EC5BFD4F80818C9380914302F8
:100AE0008F738093430281E0089580E00895AC0104
:100AF0002091410230E02617370714F1F8949091C5
:100B00004102961B9093410261157105B1F0DA0123
:100B1000640F751FE091430291E09E0F9093430292
:100B2000F0E0EC5BFD4F90819D93909143029F73A9
:100B300090934302A617B70769F7789481E0089568
:100B400080E00895EE0FFF1F0590F491E02D0994C9
:040B5000F894FFCF47
:100B54000107020100018CBA800813000021200063
:100B64000000061100020052000511000103600696
:100B74001101020001200811020400000000000518
:100B8400111001000A0511100104310711110300AD
:100B940001B42B051112010602051112010F0410F4
:100BA40011200C000200070186A0018CBA80000607
:100BB400051120010C4D0C11200818018008038038
:100BC4000020100D1120092200D9025CF3012E022D
:100BD400C20B1120072C043680220CA5800511209D
:100BE4000135E20D11200938112F2F0002FFFF00FB
:100BF400290C11200842A402D683024E018005115B
:100C040020014E4005112001510A1011210C00FF52
:100C1400BA0F51CFA9C9FC1B1E0F011011210C0CD6
:100C2400FCFD15FF000FFFBA0F51CFA91011210CC5
:100C340018C9FC1B1E0F01FCFD15FF000F08112233
:100C440004050805003D0B112307002C0E0B040CB2
:100C540073030C11400800410CEC4E1F8220FE006F
:00000001FF
