:100000000C9435000C945F000C945D000C945D0022
:100010000C945D000C945D000C945D000C945D00EC
:100020000C945D000C945D000C945D000C945D00DC
:100030000C945D000C945D000C945D000C945D00CC
:100040000C945D000C945D000C94D8040C945D003D
:100050000C945D000C945D000C945D000C945D00AC
:100060000C945D000C945D00560111241FBECFEF6F
:10007000D8E0DEBFCDBF12E0A0E0B1E0E8E4FAE0F6
:1000800002C005900D92AE30B107D9F722E0AEE084
:10009000B2E001C01D92A43AB207E1F710E0C5E357
:1000A000D0E004C02197FE010E941C05C433D10793
:1000B000C9F70E94EE000C9422050C9400001F92D8
:1000C0000F920FB60F921124CF92EF920F931F93BE
:1000D0002F933F934F935F936F937F938F939F9350
:1000E000AF93BF93EF93FF93CF93DF9300D0CDB740
:1000F000DEB70EE412E020E040E060E08AE592E046
:100100000E948003882309F444C0809150028871C2
:1001100039F08AE592E00E944704082F11E002C0FE
:1001200000E010E09091500294FF18C0BE016F5F94
:100130007F4F8AE592E00E94A9034981442371F030
:100140006EE072E08AE592E00E94FB0329814EE0B6
:1001500052E0602F86E592E00E94B001809150024B
:1001600083FF04C086E592E00E94A6011123B1F04E
:100170006894CC24C3F80F2EF3E0EF2EF02D00E0AE
:1001800020E030E040E060E08AE592E00E94CE03AB
:1001900005C065E086E592E00E9498010F900F90FF
:1001A000DF91CF91FF91EF91BF91AF919F918F918F
:1001B0007F916F915F914F913F912F911F910F917F
:1001C000EF90CF900F900FBE0F901F901895529800
:1001D00082E08093690081E08DBB0895CF93DF9327
:1001E00000D000D01F92CDB7DEB784B1866084B94D
:1001F000299A0E94A804CE0105960E940205882330
:10020000D1F38AE592E00E949302182F682F86E5C9
:1002100092E00E949D01111101C0FFCF0E94E700F2
:1002200047E060E072E18AE592E00E947A0400E033
:1002300020E040E060E0CE0101960E946F0101E005
:1002400021E041E061E0CE0101960E9482016BE075
:1002500070E0CE0101960E946B019E012F5F3F4F1F
:1002600044E06DE072E18AE592E00E94DC0241E048
:100270006CE470E28AE592E00E947A044AE060E071
:1002800072E08AE592E00E947A046894CC24C3F874
:100290000F2EF3E0EF2EF02D00E020E030E040E004
:1002A00060E08AE592E00E94CE03FFCF0F9302E068
:1002B00025E230E041E065E270E08AE592E00E94EC
:1002C000CF01E6E5F2E08EED80838DEA8183128234
:1002D00013820F910895FC017083618308950F9339
:1002E0001F93302F022F000F000F602B20E1329F51
:1002F00080011124062B440F042BFC0102831F9163
:100300000F9108950F931F9330E2239FF001112462
:1003100020E8029F800111240E2B440F440F440F4C
:10032000042B660F602BFC0163831F910F910895CE
:1003300021E0FC0122836383089521E0FC012283F4
:10034000638364E070E00E94C104089521E0FC0131
:10035000228322E0238364E070E00E94C1040895B8
:100360000F931F93CF93DF93FC01D62F8A01C22FE7
:1003700082E0820F828383E0838364E070E0CF01B8
:100380000E94C1048D2F0E94B9046C2F70E0C80137
:100390000E94C104DF91CF911F910F9108950F9397
:1003A000FC017383628346833583248307830F9123
:1003B0000895FC01A481B5814C9121E030E0C90190
:1003C000078002C0880F991F0A94E2F7842B8C9350
:1003D00085E88A95F1F70000A481B5819C91A90177
:1003E000078002C0440F551F0A94E2F7842F8095BE
:1003F00089238C93A281B3818C91068002C0220F45
:10040000331F0A94E2F7282B2C930895EF92FF9262
:100410000F931F93CF93DF93EC0100E416E0EE24DB
:10042000E394F12CEA81FB81908197010E8002C058
:10043000220F331F0A94E2F7822F8095892380834D
:1004400084E40E94A2048FEF0E94A204EA81FB814F
:10045000908197010E8002C0220F331F0A94E2F7A9
:10046000292B20838F3F19F001501109D9F691E013
:100470008F3F09F090E0892FDF91CF911F910F916D
:10048000FF90EF900895BF92CF92DF92EF92FF928C
:100490000F931F93CF93DF937C016B01C42F0E94B6
:1004A0000602B82E8823A1F1D7011296ED91FC9196
:1004B0001397208181E090E016960C9002C0880F7F
:1004C000991F0A94E2F78095822380839FEF9C0F07
:1004D000CC2369F0E601092F10E00F5F1F4F0C0DD0
:1004E0001D1D89910E94A204C017D107D1F7D70121
:1004F0001296ED91FC911397808121E030E01696E1
:100500000C9002C0220F331F0A94E2F7282B20839D
:100510008B2DDF91CF911F910F91FF90EF90DF9086
:10052000CF90BF900895CF92DF92EF92FF921F93EA
:10053000CF93DF936C010E949B04C6010E94D901F6
:100540008FE19EE40197F1F700C0000010910001D7
:10055000112349F1E12CF12C20E030E0E901219652
:10056000BE0160507F4F412FC6010E94430281119E
:1005700004C0F601F182E08217C0E114F10431F405
:10058000EFE1FEE43197F1F700C00000FFEFEF1A52
:10059000FF0A9E01210F311DF901E050FF4F10812C
:1005A0001111DCCF01C081E0DF91CF911F91FF904D
:1005B000EF90DF90CF9008950F931F93CF93DF9329
:1005C000CDB7DEB760970FB6F894DEBF0FBECDBFD4
:1005D0008C01FE01319680E1DF011D928A95E9F7D9
:1005E00081E189837A834B836C838FEF840F44236B
:1005F00091F0A22FB32F34969E01280F311D2A5F50
:100600003F4F9D919193E217F307D9F7482F50E0A0
:100610004B5F5F4F02C044E050E0BE016F5F7F4F11
:10062000C8010E94430260960FB6F894DEBF0FBE69
:10063000CDBFDF91CF911F910F910895BF92CF92BF
:10064000DF92EF92FF920F931F93CF93DF93EC0112
:100650007B01B42E00E416E0CC24C394D12CEA81B3
:10066000FB81908196010E8002C0220F331F0A94F5
:10067000E2F7822F80958923808384E40E94A2047C
:100680008FEF0E94A2048F3F21F48B0DB11012C096
:100690001FC0EA81FB812081C6010E8002C0880F45
:1006A000991F0A94E2F7822B808301501109B9F651
:1006B00080E01CC0870190E00196E80EF91E8FEFE4
:1006C0000E94A204F80181938F01EE15FF05B9F78E
:1006D000EA81FB81208181E090E00E8002C0880FDA
:1006E000991F0A94E2F7822B808381E0DF91CF91FA
:1006F0001F910F91FF90EF90DF90CF90BF900895E2
:10070000EF92FF920F931F93CF93DF9300D000D00F
:10071000CDB7DEB77C0180E289836A834B832C836B
:1007200044E0BE016F5F7F4FC7010E9443028823F0
:1007300029F048E0B801C7010E941E030F900F90F6
:100740000F900F90DF91CF911F910F91FF90EF903D
:100750000895EF92FF920F931F93CF93DF9300D0F2
:10076000CDB7DEB78C017B0185E189831A8242E037
:10077000BE016F5F7F4FC8010E944302882329F0AA
:1007800042E0B701C8010E941E030F900F90DF9155
:10079000CF911F910F91FF90EF900895CF92EF921C
:1007A0000F93CF93DF93CDB7DEB728970FB6F894AA
:1007B000DEBF0FBECDBFFE01319658E0DF011D92B6
:1007C0005A95E9F752E359836A834B833C832D831F
:1007D0000E83EF82C88648E0BF010E94430228963C
:1007E0000FB6F894DEBF0FBECDBFDF91CF910F9152
:1007F000EF90CF900895CF92DF92EF92FF920F93F8
:100800001F93CF93DF937C016B01C42FDC01129601
:10081000ED91FC911397208181E090E016960C9069
:1008200002C0880F991F0A94E2F780958223808383
:1008300087E70E94A2049FEF9C0FCC2371F0E60192
:10084000092F10E00F5F1F4F0C0D1D1D8FEF0E9431
:10085000A2048993C017D107C9F7D7011296ED9169
:10086000FC911397208181E090E016960C9002C0D5
:10087000880F991F0A94E2F7822B8083DF91CF9132
:100880001F910F91FF90EF90DF90CF9008950F93FD
:100890001F93CF93DF938C01DC011296ED91FC91B5
:1008A00013979081C1E0D0E09E0116960C9002C093
:1008B000220F331F0A94E2F7822F809589238083C9
:1008C00080E50E94A2048FEF0E94A204D801129634
:1008D000ED91FC911397908116960C9002C0CC0F6D
:1008E000DD1F0A94E2F7C92BC083DF91CF911F91DE
:1008F0000F910895CF93DF9300D000D01F92CDB712
:10090000DEB7FE01319625E0DF011D922A95E9F759
:1009100021E1298321E02B837A836C834D8345E099
:10092000BF010E9443020F900F900F900F900F9005
:10093000DF91CF91089584B1886284B98CB58065C8
:100940008CBD08958EBD0DB407FEFDCF8EB5089504
:100950001092C5008CE08093C400E0ECF0E0808150
:100960008D7F8083E1ECF0E08081886980837894DA
:100970000895E0ECF0E0908195FFFDCF8093C600F4
:100980000895CF93DF936115710579F0DC01680F4D
:10099000791FE0ECF0E0C6ECD0E0908195FFFDCF50
:1009A0009D919883A617B707C1F7DF91CF9108955E
:1009B0001F920F920FB60F9211248F93EF93FF9314
:1009C000E091630281E08E0F80936302F0E08091FA
:1009D000C600EC59FD4F8083809163028F73809332
:1009E00063028091620286FD05C0809162028F5F82
:1009F00080936202FF91EF918F910F900FBE0F9045
:100A00001F901895DC0190916202992399F0E09172
:100A10006302E150E0936302F0E0EC59FD4F808106
:100A20008C93809162028150809362028091630274
:100A300081E0089580E00895EE0FFF1F0590F49186
:080A4000E02D0994F894FFCFAA
:100A480007020100018CBA80081300002120000071
:100A58000006110002005200051100010360061192
:100A6800010200011808110204000A000000051123
:100A780010010431071111030001B42B05111201F3
:100A88000602051112010F041011200C00020007C4
:100A98000186A0018CBA800006051120010C4D0CBE
:100AA8001120081801800803800020100D1120096A
:100AB8002200D9025CF3012E02C20B1120072C047C
:100AC8003680220CA5800511200135E20D11200980
:100AD80038112F2F0002FFFF00290D11200942A411
:100AE80002D683024E0180FF051120014C01051139
:100AF80020014E4005112001510A1011210C00FF60
:100B0800BA0F51CFA9C9FC1B1E0F011011210C0CE3
:100B1800FCFD15FF000FFFBA0F51CFA91011210CD2
:100B280018C9FC1B1E0F01FCFD15FF000F05112243
:100B380001033D0B112307002C0E0B040C73030C4F
:0E0B480011400800410CEC4E1F8220FE000000
:00000001FF
