S0110000456570726F6D436F6D2E737265638C
S11300000C9434000C9451000C9451000C94510045
S11300100C9451000C9451000C9451000C94510018
S11300200C9451000C9451000C9451000C94510008
S11300300C9451000C9451000C9451000C945100F8
S11300400C9451000C9451000C94B0010C94510088
S11300500C9451000C9451000C9451000C945100D8
S11300600C9451000C94510011241FBECFEFD8E022
S1130070DEBFCDBF11E0A0E0B1E0EAE4F4E002C0ED
S113008005900D92A43BB107D9F721E0A4EBB1E0B0
S113009001C01D92A83FB207E1F70E94B3000C947F
S11300A023020C9400008091B50190E00E94640149
S11300B089E491E00E944E018091B40190E00E9495
S11300C064010E94F40108950F931F93CF93DF936B
S11300D0D82F8B010E94F300C82F811105C080E046
S11300E091E00E944E0139C080EA0E940F01809184
S11300F0B401883131F080E191E00E944E01C0E00A
S11301002CC08D2F0E940F018091B401883231F0F0
S113011080E191E00E944E01C0E01FC00E940B01EB
S11301200E94F300C82F811105C08CE491E00E9465
S11301304E0113C081EA0E940F018091B401803402
S113014041F083E691E00E944E010E945300C0E01A
S113015004C00E942201F80180838C2FDF91CF918B
S11301601F910F910895CF93DF9300D0CDB7DEB7E1
S11301700E9435010E94E70004C088E791E00E94D4
S11301804E01CE0102960E94DA018823B1F38CE875
S113019091E00E944E01BE016F5F7F4F89E190E0C4
S11301A00E946400182F8AE991E00E944E011123F5
S11301B049F082EA91E00E944E01898190E00E9418
S11301C0640104C08AEA91E00E944E01FFCF1092BC
S11301D0B90088E48093B80087B18F7C87B984E044
S11301E08093BC00089584EA8093BC00ECEBF0E0BB
S11301F080818823ECF71092B5019091B900987F23
S11302009093B401983029F081E0903119F080E0A6
S1130210089581E0089584E98093BC000895809353
S1130220BB0084E88093BC00ECEBF0E08081882381
S1130230ECF781E08093B5018091B900887F8093C9
S1130240B401089584E88093BC00ECEBF0E0808175
S11302508823ECF783E08093B5018091B900887F0F
S11302608093B4018091BB0008951092C5008CE086
S11302708093C400E0ECF0E080818D7F8083E1EC2A
S1130280F0E080818869808378940895E0ECF0E060
S1130290908195FFFDCF8093C6000895CF93DF939F
S11302A0FC012081222369F0DC011196E0ECF0E0EE
S11302B0C6ECD0E0908195FFFDCF28832D912111CC
S11302C0F9CFDF91CF910895EF92FF920F931F938F
S11302D0CF93DF9300D000D01F92CDB7DEB7992320
S11302E05CF4919581959109E0ECF0E0208125FF83
S11302F0FDCF2DE22093C6008E010F5F1F4FF80142
S11303000F2EFAE0EF2EF12CF02D9F01B7010E9481
S1130310FB01805D8193862F972F0097B1F7CE0163
S113032001962817390780F0AF01E0ECF0E026ECE5
S113033030E0808185FFFDCFDA018E91AD01D901D6
S11303408C9340175107A9F70F900F900F900F90BF
S11303500F90DF91CF911F910F91FF90EF9008952F
S11303601F920F920FB60F9211248F93EF93FF9366
S1130370E091B70181E08E0F8093B701F0E08091A6
S1130380C600E854FE4F80838091B7018F73809339
S1130390B7018091B60186FD05C08091B6018F5FDB
S11303A08093B601FF91EF918F910F900FBE0F9044
S11303B01F901895DC019091B601992399F0E09172
S11303C0B701E150E093B701F0E0E854FE4F8081BB
S11303D08C938091B60181508093B6018091B701CE
S11303E081E0089580E008958DE00E9446018AE04E
S11303F00E944601089597FB072E16F4009407D037
S113040077FD09D00E940F0207FC05D03EF49095B9
S113041081959F4F0895709561957F4F0895AA1B0C
S1130420BB1B51E107C0AA1FBB1FA617B70710F0DB
S1130430A61BB70B881F991F5A95A9F7809590950D
S10D0440BC01CD010895F894FFCF2C
S113044A4661696C65642073746172740D0A0000F4
S113045A4661696C656420646576696365206164D4
S113046A64720D0A00004661696C656420646174F3
S113047A6120616464720D0A00004661696C6564F6
S113048A20646174610D0A00002000004661696CF1
S113049A6564207365636F6E642073746172740D8E
S11304AA0A00004661696C656420736C6176652094
S11304BA616464720D0A0000507265737320616E80
S11304CA79206B65792E2E2E0D0A0000526561641F
S11304DA696E672E2E2E0D0A0000446F6E650D0A92
S11304EA0000526563763A2000004661696C6564CF
S10704FA2E000000CC
S9030000FC
