:100000000C945E000C9486000C9486000C94860080
:100010000C9486000C9486000C9486000C94860048
:100020000C9486000C9486000C9486000C94860038
:100030000C9486000C9486000C9486000C94860028
:100040000C9486000C9486000C94B8000C948600E6
:100050000C9486000C9486000C9486000C94860008
:100060000C9486000C948600560466046E04810489
:100070008904B704BF04CA04D204D904D904D9043A
:10008000D904D904D904D904D904D904D904D90488
:10009000D904D904D904D904D904D904D904D90478
:1000A000D904D904D904D90456045E0466046E0444
:1000B000810489049C04A404AC04920111241FBE91
:1000C000CFEFD8E0DEBFCDBF11E0A0E0B1E0E8E3C4
:1000D000FCE002C005900D92A033B107D9F721E0F2
:1000E000A0E3B1E001C01D92A43EB207E1F710E029
:1000F000CEE5D0E004C02197FE010E94CC05CD35AD
:10010000D107C9F70E9464010C941A060C940000F0
:100110001092C50087E68093C400E0ECF0E0808197
:100120008D7F8083E1ECF0E0808188698083789422
:100130000895E0ECF0E0908195FFFDCF8093C6003C
:100140000895CF93DF936115710579F0DC01680F95
:10015000791FE0ECF0E0C6ECD0E0908195FFFDCF98
:100160009D919883A617B707C1F7DF91CF910895A6
:100170001F920F920FB60F9211242F933F934F931C
:100180005F936F937F938F939F93AF93BF93EF93FF
:10019000FF936091C60081E791E00E94E00488230C
:1001A00019F081E080937001FF91EF91BF91AF91C1
:1001B0009F918F917F916F915F914F913F912F917F
:1001C0000F900FBE0F901F9018958DE00E94990020
:1001D0008AE00E94990008958F929F92AF92BF92F9
:1001E000CF92DF92EF92FF920F931F93CF93DF9303
:1001F0006C01CB01BA01E601760100E010E00F2EA0
:10020000FAE08F2E912CA12CB12CF02D0F5F1F4FF7
:10021000A50194010E94AD05605DF70161937F0126
:10022000622F732F842F952F61157105810591051C
:1002300069F7C80111230CF4019695958795181656
:1002400019067CF4F601E00FF11F9801281B390B09
:10025000C20ED31E8881929199938083EC15FD057F
:10026000C9F7C801DF91CF911F910F91FF90EF90D7
:10027000DF90CF90BF90AF909F908F900895CF92D6
:10028000DF92EF92FF92CF93DF9369017A01AB0186
:10029000BC0180E391E00E94EC00805D9E4FEC0188
:1002A000219620E2FC012083B701A601CE010E9425
:1002B000EC008C0F9D1F80539140DF91CF91FF90F8
:1002C000EF90DF90CF900895CF93DF93CDB7DEB757
:1002D00028970FB6F894DEBF0FBECDBF0E948800EE
:1002E000809170018823E1F310927001AE014B5FA1
:1002F0005F4FBE016F5F7F4F81E791E00E945C0519
:100300002D813E814F81588569817A818B819C81C5
:100310000E943F01BC0180E391E00E94A1000E9485
:10032000E500DECF81E791E00E9497010895FC018E
:100330004FEF5FEFBA01408351836283738310866E
:100340001186128613868FEF99ECAAE9BBE3808BA6
:10035000918BA28BB38B808F918FA28FB38F80A351
:1003600091A3A2A3B3A380A791A7A2A7B3A780AB91
:1003700091ABA2ABB3AB40AF51AF62AF73AFDF0194
:10038000A05CBF4F8FEF90E011969C938E931496D4
:100390004D935D936D937C93139718964D935D9356
:1003A0006D937C93139718961C9211961C925096FD
:1003B00082E08C9311961C9211961C9211961C92BD
:1003C00011961D921D921D921C92139714961196D0
:1003D0001C921E9212961D921C92EA5AFF4F108296
:1003E00008958FEB860F863020F4862F90E0C79714
:1003F00008958FE9860F863028F4862F90E0875580
:1004000091090895862F90E0C0970895FB012081FF
:1004100080ED820F8A3040F5319660E070E0CB01CC
:10042000AB01BC01440F551F661F771FDB01CA01DA
:10043000880F991FAA1FBB1F880F991FAA1FBB1FD8
:10044000840F951FA61FB71F820F911DA11DB11DFF
:10045000BC01CD016053710981099109219130EDF1
:10046000320F3A30E8F2089560E070E0CB01089571
:100470000F931F93CF93DF93FC01EA5AFF4F11E0D4
:1004800020812D3209F010E0111104C0EC01CA5A8C
:10049000DF4F03C0EC01C95ADF4FBE010E940602C4
:1004A0009B01AC01A4E6B0E00E94D205AB01BC0107
:1004B000888190ED980F9A3040F4FE013196EF015B
:1004C000819190ED980F9A30D0F38E3251F52981B9
:1004D00080ED820F8A3028F530E020533109C901C0
:1004E000880F991F220F331F220F331F220F331F34
:1004F000820F931F092E000CAA0BBB0B480F591F2C
:100500006A1F7B1F8A8190ED980F9A3050F490E01B
:10051000C097092E000CAA0BBB0B480F591F6A1F6E
:100520007B1F112351F08A019B0166277727CB019E
:10053000601B710B820B930B02C0CB01BA01DF91E0
:10054000CF911F910F9108954F925F926F927F927A
:100550008F929F92AF92BF92CF92DF92EF92FF92D3
:100560000F931F93CF93DF9300D000D0CDB7DEB7AA
:100570008C010A5A1F4FB8010E94060269837A83D0
:100580008B839C8324E630E040E050E00E948B05A2
:100590009B01AC0160EA76E881E090E00E947B0577
:1005A0006B017C01F801808190ED980F9A3038F44E
:1005B00031968F01819190ED980F9A30D0F38E3261
:1005C00081F5F801A18180ED8A0F8A3050F50E5F28
:1005D0001F4F0F2EF0E14F2EF7E25F2E612C712C92
:1005E000F02D0F2EFAE08F2E912CA12CB12CF02D96
:1005F000B0E0D097A30192010E94DD05C60ED71E80
:10060000E81EF91EC301B201A50194010E948B05E9
:1006100029013A01F801A1918F0180ED8A0F8A30FA
:1006200038F3C701B6016D5F7F4F8F4F9F4F26E0B4
:1006300030E040E050E00E948B0569017A01698159
:100640007A818B819C8124E630E040E050E00E947A
:100650008B0560E472E48FE090E00E947B056C0DF6
:100660007D1D8E1D9F1D0F900F900F900F90DF919D
:10067000CF911F910F91FF90EF90DF90CF90BF909F
:10068000AF909F908F907F906F905F904F90089564
:10069000FB018081882371F0FA01908189130AC0DF
:1006A000FB013196DA0111968191882319F09D9111
:1006B0008917D1F390E00895EF92FF921F93CF93A3
:1006C000DF93EC01FC01EB5AFF4F1081112309F479
:1006D000A9C0319660810E94F101182FFE01E95AEC
:1006E000FF4F6081CE010E94F10120E1129F800D39
:1006F0001124FE01EC5AFF4F908198138AC0749622
:100700001081112309F455C135968081918101969C
:1007100091838083B59780819181A281B381349741
:1007200080839183A283B3833C9680819181A2814F
:10073000B381349780839183A283B3837996808138
:100740008823A1F1813009F034C18C819D81AE8173
:10075000BF8188839983AA83BB838C859D85AE8561
:10076000BF8588879987AA87BB878C899D89AE8931
:10077000BF89888B998BAA8BBB8B8C8D9D8DAE8D01
:10078000BF8D888F998FAA8FBB8F8CA59DA5AEA595
:10079000BFA588A799A7AAA7BBA78CA99DA9AEA901
:1007A000BFA988AB99ABAAABBBAB03C18CA19DA180
:1007B000AEA1BFA188A399A3AAA3BBA38C819D814D
:1007C000AE81BF8188839983AA83BB838C899D89ED
:1007D000AE89BF89888B998BAA8BBB8B8C8D9D8DA5
:1007E000AE8DBF8D888F998FAA8FBB8FFE01E05C85
:1007F000FF4FDE01AE5BBF4F8D919C919183808353
:100800008CAD9DADAEADBFAD88AF99AFAAAFBBAF5C
:10081000D0C0C159DF4F888199810196998388831F
:1008200010E0C7C0FC01EA59FF4F8081811122C04E
:100830007E0186E5E80EF11C40E051E0B701CE01F3
:100840000E944803892B29F4CB59DF4F81E088832C
:10085000B0C046E051E0B701CE010E944803892BA9
:1008600021F4CB59DF4F1882A4C0CB59DF4F82E06F
:1008700088839FC0FE01EB59FF4FE081E23009F40D
:1008800098C0DE01AA5ABF4F9C91992309F491C0E8
:1008900020E2E29FF0011124E82B3197E932F105C3
:1008A00008F087C0EC5CFF4F0C94CC05CE010E9491
:1008B00038026C837D838E839F837BC0C859DF4F52
:1008C00081E0913409F080E0888373C0CE010E94FA
:1008D000A4026C8B7D8B8E8B9F8B6BC0933509F044
:1008E00068C08C899D89AE89BF89B095A095909587
:1008F00081959F4FAF4FBF4F8C8B9D8BAE8BBF8B26
:1009000058C0CE010E94A4026C8F7D8F8E8F9F8F66
:1009100050C0973509F04DC08C8D9D8DAE8DBF8D2B
:10092000B095A095909581959F4FAF4FBF4F8C8FFD
:100930009D8FAE8FBF8F3DC0CE010E9438026CA745
:100940007DA78EA79FA735C0CE010E9438026CAB51
:100950007DAB8EAB9FAB2DC0BE016A5A7F4FCE01DF
:100960000E9406026C877D878E879F8722C0C859A8
:10097000DF4F81E0913308F480E088831AC0CE0114
:100980008A5A9F4F0E94F405CE5BDF4F99279983C7
:1009900088830FC0CE010E9438026CAF7DAF8EAF4E
:1009A0009FAF07C0CE010E9438026CA37DA38EA327
:1009B0009FA3812FDF91CF911F91FF90EF9008951A
:1009C0000F931F93CF93DF93FC01E759FF4F0081F3
:1009D0001181228133810F5F1F4F2F4F3F4F0083C3
:1009E0001183228333836432A9F130F46A3079F0C1
:1009F0006D3009F040C00BC06A3249F06C32D9F555
:100A0000FC01EC5AFF4F30812CE223272083162F64
:100A1000EC01FC01E959FF4F80818F3050F4FE0159
:100A2000E80FF11DEA5AFF4F1082CE010E945C03CD
:100A300001C080E0FE01EA59FF4F90819F5F9083E3
:100A400031961082CB5ADF4F91E01A3209F090E0D4
:100A500098832DC0FC01E959FF4F10823197108215
:100A600072971082719622E020837097108273969D
:100A7000108280E01CC0FC01E959FF4F20812E301C
:100A800048F431E0320F3083FC01E20FF11DEA5AE5
:100A9000FF4F6083FC01EB5AFF4F2081211106C0FC
:100AA000319780816827608380E001C080E0DF911A
:100AB000CF911F910F9108950F931F9361157105A9
:100AC00051F0FC010089118922893389FB010083DF
:100AD0001183228333834115510551F0FC01808D30
:100AE000918DA28DB38DFA0180839183A283B3830C
:100AF0001F910F910895DB018F939F930E94D20560
:100B0000BF91AF91A29F800D911DA39F900DB29FA9
:100B1000900D11240895A1E21A2EAA1BBB1BFD0102
:100B20000DC0AA1FBB1FEE1FFF1FA217B307E407CC
:100B3000F50720F0A21BB30BE40BF50B661F771F24
:100B4000881F991F1A9469F7609570958095909504
:100B50009B01AC01BD01CF010895052E97FB1EF44A
:100B600000940E94C40557FD07D00E948B0507FC26
:100B700003D04EF40C94C4055095409530952195C2
:100B80003F4F4F4F5F4F08959095809570956195B9
:100B90007F4F8F4F9F4F0895EE0FFF1F0590F491E9
:100BA000E02D09940E94E505A59F900DB49F900D3E
:100BB000A49F800D911D11240895B7FF0C94D205B8
:100BC0000E94D205821B930B0895A29FB001B39F90
:100BD000C001A39F700D811D1124911DB29F700D46
:100BE000811D1124911D0895FC0188279927E894FF
:100BF00021912032E9F3293010F02E30C8F32B3246
:100C000041F02D3239F4689404C00E941206820F1C
:100C1000911D219120532A30C0F31EF490958195A7
:100C20009F4F08957AE0979F902D879F802D910D7B
:080C300011240895F894FFCF90
:100C38004750524D43004750474741004E004E4EE3
:100C48004500454E45004553450053534500530064
:100C58005353570057535700574E57004E4E57009F
:00000001FF
