S00F0000547769446572702E7372656356
S11300000C9435000C945D000C945D000C945D0020
S11300100C945D000C945D000C945D000C945D00E8
S11300200C945D000C945D000C945D000C945D00D8
S11300300C945D000C945D000C945D000C945D00C8
S11300400C945D000C945D000C9431030C945D00E1
S11300500C945D000C945D000C945D000C945D00A8
S11300600C945D000C945D00B20011241FBECFEF10
S1130070D8E0DEBFCDBF11E0A0E0B1E0E4E2F7E0FC
S113008002C005900D92A234B107D9F721E0A2E491
S1130090B1E001C01D92A639B207E1F710E0C5E353
S11300A0D0E004C02197FE010E948A03C433D10723
S11300B0C9F70E945F000C9490030C9400000E9406
S11300C0B6020E94AA0142E060E080E591E00E944D
S11300D0C200811104C080E091E00E94CF0224E4B8
S11300E031E046E451E068E471E080E591E00E948B
S11300F04201882391F12AE431E04CE451E06EE4BA
S113010071E080E591E00E94FD00882331F162E412
S113011071E080E591E00E9487018823F1F08091ED
S11301204801909149010E94E50289E00E94C702BA
S113013080914601909147010E94E50289E00E9466
S1130140C70280914401909145010E94E50289E033
S11301500E94C7020E945B03C2CF8FE191E00E941C
S1130160CF02FFCF60E080E591E00E94B8000895DF
S1130170611104C028E6FC012183089529E6FC01ED
S1130180218308950F931F93CF93DF93643068F511
S1130190443068F5142F062FEC0141E06BE68981A9
S11301A00E940E02882321F140E069E189810E94C6
S11301B00E028823E9F040E06AE189810E940E0280
S11301C08823B1F0402F440F440F440F6BE1898121
S11301D00E940E02882361F0412F440F440F440F04
S11301E06CE189810E940E0203C080E001C080E0BE
S11301F0DF91CF911F910F910895CF92DF92EF92EB
S1130200FF920F931F93CF93DF9300D000D000D0C1
S1130210CDB7DEB76B017A01890126E0AE014F5FED
S11302205F4F6BE3FC0181810E94A1028823D9F016
S1130230298130E0322F22279A81292BF60131833C
S113024020836B8170E0762F66279C81692BF701F0
S1130250718360834D8150E0542F44279E81492B44
S1130260F8015183408326960FB6F894DEBF0FBE83
S1130270CDBFDF91CF911F910F91FF90EF90DF9051
S1130280CF900895CF92DF92EF92FF920F931F9336
S1130290CF93DF9300D000D000D0CDB7DEB76B0191
S11302A07A01890126E0AE014F5F5F4F63E4FC01F0
S11302B081810E94A1028823D9F0298130E0322F64
S11302C022279A81292BF601318320836B8170E0E8
S11302D0762F66279C81692BF701718360834D819A
S11302E050E0542F44279E81492BF80151834083C9
S11302F026960FB6F894DEBF0FBECDBFDF91CF9127
S11303001F910F91FF90EF90DF90CF9008950F937E
S11303101F93CF93DF9300D0CDB7DEB78B0122E0DC
S1130320AE014F5F5F4F61E4FC0181810E94A10235
S1130330882349F0298130E0322F22279A81292B02
S1130340F801318320830F900F90DF91CF911F919B
S11303500F9108951092B90088E48093B80084B195
S11303608F7C84B988B1806388B984E08093BC00B1
S1130370089584EA8093BC00ECEBF0E0808188234C
S1130380ECF7109253019091B900987F9093520129
S1130390983029F081E0903119F080E0089581E0EF
S11303A0089584E98093BC0008958093BB0084E899
S11303B08093BC00ECEBF0E080818823ECF781E0D3
S11303C0809353018091B900887F809352010895EE
S11303D084EC8093BC00ECEBF0E080818823ECF7A4
S11303E082E0809353018091B900887F8093520109
S11303F08091BB00089584E88093BC00ECEBF0E0AE
S113040080818823ECF783E0809353018091B900C5
S1130410887F809352018091BB0008950F931F93AE
S1130420CF93DF93D82F162F042F0E94B901C82F22
S11304308823F1F08D2F880F0E94D50180915201FD
S1130440883189F4812F0E94D5018091520188322C
S113045061F4802F0E94D50180915201883239F4D1
S11304600E94D10105C0C0E003C0C0E001C0C0E0EB
S11304708C2FDF91CF911F910F9108951F93CF93EC
S1130480DF93D82F162F0E94B901C82F8823A9F013
S11304908D2F880F0E94D50180915201883151F42B
S11304A0812F0E94D50180915201883229F40E9443
S11304B0D10103C0C0E001C0C0E08C2FDF91CF9117
S11304C01F910895CF92DF92EF92FF920F931F93A3
S11304D0CF93DF93C82F7B01042F0E94B901182FFB
S11304E0882329F18C2F880F81600E94D501809187
S11304F052018034D9F4802F90E001971816190620
S113050054F4E7016C01CE0CDF1C0E94E8018993CE
S1130510CC15DD05D1F7C02FD0E02197CE0DDF1D1E
S11305200E94FB0188830E94D10101C010E0812F49
S1130530DF91CF911F910F91FF90EF90DF90CF90BB
S113054008950F931F93CF93DF93C82F8A01D22F5F
S11305500E943E02882329F04D2FB8018C2F0E945F
S11305606202DF91CF911F910F9108951092C500FF
S113057082E28093C400E0ECF0E0808182608083BA
S1130580E1ECF0E080818869808378940895E0EC60
S1130590F0E0908195FFFDCF8093C6000895CF933E
S11305A0DF93FC012081222369F0DC011196E0EC49
S11305B0F0E0C6ECD0E0908195FFFDCF28832D912B
S11305C02111F9CFDF91CF910895EF92FF920F930C
S11305D01F93CF93DF9300D000D01F92CDB7DEB727
S11305E099235CF4919581959109E0ECF0E02081E8
S11305F025FFFDCF2DE22093C6008E010F5F1F4F14
S1130600F8010F2EFAE0EF2EF12CF02D9F01B70127
S11306100E946203805D8193862F972F0097B1F724
S1130620CE0101962817390780F0AF01E0ECF0E025
S113063026EC30E0808185FFFDCFDA018E91AD019B
S1130640D9018C9340175107A9F70F900F900F9081
S11306500F900F90DF91CF911F910F91FF90EF902A
S113066008951F920F920FB60F9211248F93EF9358
S1130670FF93E091550181E08E0F80935501F0E0E6
S11306808091C600EA5AFE4F8083809155018F7392
S1130690809355018091540186FD05C080915401D9
S11306A08F5F80935401FF91EF918F910F900FBE54
S11306B00F901F9018958DE00E94C7028AE00E9457
S11306C0C702089597FB072E16F4009407D077FD10
S11306D009D00E94760307FC05D03EF490958195DD
S11306E09F4F0895709561957F4F0895AA1BBB1B7A
S11306F051E107C0AA1FBB1FA617B70710F0A61B1E
S1130700B70B881F991F5A95A9F780959095BC013E
S1130710CD010895EE0FFF1F0590F491E02D09948B
S1070720F894FFCF77
S1130724436F756C646E277420696E69742C207031
S11307346C656173652072657365740D0A00004508
S113074472726F72206F6363757265642C20706CAF
S1130754656173652072657365742E2E2E0D0A000F
S105076400008F
S9030000FC
